:020000040800F2
:1000000000000120C5020008CB020008CF02000852
:1000100041030008450300088D03000800000000AC
:10002000000000000000000000000000D5030008F0
:10003000D903000800000000DD030008E103000808
:10004000F1030008F1030008F1030008F1030008C0
:10005000F1030008F1030008F1030008F1030008B0
:10006000F1030008F1030008F1030008F1030008A0
:10007000F1030008F1030008F1030008F103000890
:10008000F1030008F1030008F1030008000000007C
:10009000000000000000000000000000F103000864
:1000A000F1030008F1030008F1030008F103000860
:1000B000F1030008F1030008F1030008F103000850
:1000C000F1030008F1030008F1030008F103000840
:1000D000F1030008F1030008F1030008000000002C
:1000E000F1030008F1030008F1030008000000001C
:1000F000000000000000000000000000F103000804
:1001000000000000F1030008F1030008F1030008FB
:1001100000000000000000000000000000000000DF
:10012000F1030008F1030008F1030008F1030008DF
:10013000F1030008000000000000000000000000C3
:10014000000000000000000000000000F1030008B3
:10015000F1030008F1030008F1030008F1030008AF
:10016000F1030008F1030008000000000000000097
:10017000000000000000000000000000000000007F
:1001800000000000F1030008000000000000000073
:10019000F103000800B583B000F004FF384B394A82
:1001A0001360394A1360394900E02146384B9942BF
:1001B0000BD20A684B6801F10C0488689842F4D9A4
:1001C0001168196004330432F8E72E4B1A68314B7A
:1001D0009A4200D0FEE72C4B1A682F4B9A42F9D175
:1001E000274B2E4A13602E4A13602E4B05E0002049
:1001F000106004329342FAD80B462B4A934204D241
:10020000194651F8082B5B68F4E7244B1B6813B9B7
:10021000234B1B6803B1FEE701F044FA694601A8CD
:1002200000F0E2FD214C224BE41AA4100025AC4260
:1002300014DC204C204BE41AA4100025AC4213DC43
:100240000099019801F040FA05461C4C1C4BE41A39
:10025000A410002C0EDC284600F0A2FD144B53F82D
:10026000253098470135E2E7134B53F8253098477E
:100270000135E3E7013C124B53F824309847E8E797
:10028000BABADECA000000207C000020F403000897
:100290000C040008785634123254769880000020FE
:1002A0001C0100200C0400081C0400081C040008A9
:1002B0001C0400081C0400081C0400081C0400089E
:1002C0001C04000808B5FFF765FF00BEFEE71EF03E
:1002D000040F0CBFEFF30880EFF309807146414A29
:1002E00010472DE9F04182B004468846124B5E6B00
:1002F0009F6B9D6A1B6B13F0020F03D00E4BDB6AE2
:10030000002B0CDB0D4800F0ABFDCDF800803B4628
:1003100032462946204600F0BBFD00BEFEE74BF604
:10032000AB6100F02FFE0028ECD0034B4FF00042F1
:10033000DA6202B0BDE8F08100ED00E06824000858
:1003400000BEFEE71EF0040F0CBFEFF30880EFF3D2
:1003500009807146244A10472DE9F04182B00446D5
:100360008846084B5E6B9F6B9D6A074800F078FDDE
:10037000CDF800803B4632462946204600F088FDF5
:1003800000BEFEE700ED00E0782400081EF0040F38
:100390000CBFEFF30880EFF309807146134A104752
:1003A0002DE9F04182B004468846084B5E6B9F6B96
:1003B0009D6A074800F054FDCDF800803B46324668
:1003C0002946204600F064FD00BEFEE700ED00E097
:1003D0008424000800BEFEE700BEFEE700BEFEE784
:1003E00070470000E302000859030008A103000859
:0403F00000BEFEE766
:1003F40010C50008000000208000002010C500087F
:1004040000000010000000108000002020010020E7
:080414000000001000000010C0
:1004200010B504460E4B18784FF47A73B3FBF0F313
:100430000C4A1068B0FBF3F000F09CF868B90F2C80
:1004400001D901200AE0002221464FF0FF3000F0E0
:100450004BF8054B1C60002000E0012010BD00BFE0
:1004600004000020140000200800002008B50B4BF9
:100470001A6842F400721A601A6842F480621A60C4
:100480001A6842F480721A60032000F00FF80F20FF
:10049000FFF7C6FF01F030F9002008BD003C024024
:1004A000014B1868704700BF1401002010B50446C6
:1004B000C31E042B0FD80A4AD36823F4E0631B043D
:1004C0001B0C240204F4E064234343F0BF6343F4B1
:1004D0000033D36010BD9221024801F0EBF8EAE747
:1004E00000ED00E0E822000870B505460C4616460F
:1004F0000F2A25D80F2C28D81B4BDB68C3F3022307
:10050000C3F10702042A28BF0422191D062921D994
:10051000033B4FF0FF3101FA02F224EA02049C404F
:1005200001FA03F326EA03063443002D14DB240109
:10053000E4B205F1604505F5614585F8004370BDFD
:10054000AA210A4801F0B6F8D4E7AB21074801F028
:10055000B1F8D1E70023DCE705F00F052401E4B290
:10056000034B5C55EBE700BF00ED00E0E82200081C
:1005700014ED00E00138B0F1807F0AD2064B5860DC
:10058000064AF02182F823100020986007221A60A2
:1005900070470120704700BF10E000E000ED00E070
:1005A00010B50446042800D038B9042C0BD0094AF1
:1005B000136823F00403136010BD40F2C91106480C
:1005C00001F078F8F1E7034A136843F0040313607D
:1005D000F2E700BF10E000E0E8220008002800F089
:1005E000648270B582B0044603680F2B39D8236843
:1005F00013F0010F4DD063682BB1B3F5803F02D0EB
:10060000B3F5A02F32D1A54B9B6803F00C03042B4C
:1006100036D0A24B9B6803F00C03082B2BD06368E9
:10062000B3F5803F5FD0B3F5A02F62D09B4B1A6823
:1006300022F480321A601A6822F480221A606368F9
:10064000002B60D0FFF72CFF0546944B1B6813F47A
:10065000003F1ED1FFF724FF401B6428F5D903207B
:1006600028E2E8218E4801F025F8C0E7ED218C480A
:1006700001F020F8C7E7894B5B6813F4800FCED0F8
:10068000864B1B6813F4003F03D06368002B00F017
:100690000E82236813F0020F67D0E368012B41D864
:1006A00023691F2B44D87D4B9B6813F00C0F4AD055
:1006B0007A4B9B6803F00C03082B3FD0E368002BB8
:1006C00077D0784B01221A60FFF7EAFE0546734B9C
:1006D0001B6813F0020F63D1FFF7E2FE401B0228F4
:1006E000F5D90320E6E16D4A136843F480331360C3
:1006F000A5E76A4B1A6842F480221A601A6842F42D
:1007000080321A609BE7FFF7CBFE0546634B1B6800
:1007100013F4003FBDD0FFF7C3FE401B6428F5D99A
:100720000320C7E140F21F115D4800F0C3FFB7E7A7
:100730004FF490715A4800F0BDFFB4E7574B5B6827
:1007400013F4800FBAD1554B1B6813F0020F04D07D
:10075000E368012B01D00120ACE1504A136823F07B
:10076000F803216943EAC1031360236813F0080FFB
:1007700049D06369012B2ED8636993B34A4B012298
:100780001A60FFF78DFE0546444B5B6F13F0020FB6
:1007900039D1FFF785FE401B0228F5D9032089E1F6
:1007A0003E4A136823F0F803216943EAC10313604A
:1007B000DBE73C4B00221A60FFF772FE0546374B21
:1007C0001B6813F0020FD0D0FFF76AFE401B02280F
:1007D000F5D903206EE14FF4B071314800F06AFFA3
:1007E000CAE7314B00221A60FFF75AFE05462B4B31
:1007F0005B6F13F0020F06D0FFF752FE401B02287A
:10080000F5D9032056E1236813F0040F00F0878028
:10081000A368012B01D9052B38D1204B1B6C13F099
:10082000805F39D1002301931C4B1A6C42F0805237
:100830001A641B6C03F080530193019B01251B4B31
:100840001B6813F4807F33D0A368012B44D0052BA1
:1008500048D0124B1A6F22F001021A671A6F22F069
:1008600004021A67A368002B46D0FFF719FE06465C
:100870000A4B1B6F13F0020F4FD1FFF711FE801BC5
:1008800041F288339842F3D9032013E14FF4C67143
:10089000034800F00FFFC0E70025D0E70038024012
:1008A0001C23000800004742800E474200700040B1
:1008B000834A136843F480731360FFF7F1FD064623
:1008C0007F4B1B6813F4807FBED1FFF7E9FD801BCF
:1008D0000228F5D90320EDE07A4A136F43F00103B3
:1008E0001367BFE7774B1A6F42F004021A671A6F5B
:1008F00042F001021A67B5E7FFF7D2FD0646714BD9
:100900001B6F13F0020F08D0FFF7CAFD801B41F2E6
:1009100088339842F3D90320CCE0002D3BD1A36962
:10092000022B3ED8A369002B00F0C380654A926871
:1009300002F00C02082A00F09080022B79D1E369C2
:1009400013B1B3F5800F32D1236A3F2B35D8636AD8
:10095000323BB3F5BF7F36D8A36A022B05D0042BF8
:1009600003D0062B01D0082B33D1E36A023B0D2BB9
:1009700035D8554B00221A60FFF792FD0546514BC2
:100980001B6813F0007F30D0FFF78AFD401B022860
:10099000F5D903208EE04B4A136C23F08053136487
:1009A000BDE740F2CF11494800F084FEBAE74FF4AA
:1009B000EC71464800F07EFEC6E740F2D91143488C
:1009C00000F078FEC3E74FF4ED71404800F072FE8E
:1009D000C2E740F2DB113D4800F06CFEC5E74FF482
:1009E000EE713A4800F066FEC3E7E369226A1343FA
:1009F000626A43EA8213A26A5208013A43EA024356
:100A0000E26A43EA02632F4A53602F4B01221A60C5
:100A1000FFF746FD04462B4B1B6813F0007F06D101
:100A2000FFF73EFD001B0228F5D9032042E000201D
:100A300040E0254B00221A60FFF732FD0446214BAF
:100A40001B6813F0007F06D0FFF72AFD001B022869
:100A5000F5D903202EE000202CE0012B2CD0194BDF
:100A60005B6803F48001E269914201D0012021E03A
:100A700003F03F02216A8A4201D001201AE0616A34
:100A800047F6C0721A408A4201D0012012E003F4F6
:100A90004032A16A8A4201D001200BE003F070636A
:100AA000E26A93420AD0012004E00120704701204D
:100AB00000E0002002B070BD0120FBE70020F9E754
:100AC0000070004000380240600047421C230008CC
:100AD000264B9B6803F00C03042B44D0082B01D059
:100AE000234870472DE9F04B204B5A6802F03F0233
:100AF0005B6813F4800F13D01C4B5968C1F3881145
:100B000000231C48A1FB000100F0F8FD174B5B68B7
:100B1000C3F3014301335B00B0FBF3F0BDE8F08B9E
:100B2000124B5B68C3F388131E4600275C01002547
:100B3000E41A65EB0705A90141EA9461A001001BD5
:100B400061EB0501CB0043EA5073C400A01943EBED
:100B500007018B0243EA9053840220461946002382
:100B600000F0CCFDD2E70348704700BF00380240D8
:100B70000024F40040787D01002800F0FA8070B570
:100B800004460D460368013B0E2B11D8072D15D8DE
:100B90007A4B1B6803F00F03AB4215D2EBB2774AD6
:100BA0001370136803F00F03AB420DD0012070BD2A
:100BB00040F25121724800F07DFDE7E740F25221FA
:100BC0006F4800F077FDE3E7236813F0020F29D0A8
:100BD00013F0040F04D06B4A936843F4E05393601E
:100BE000236813F0080F04D0664A936843F4604307
:100BF0009360A3687BB1802B0DD0902B0BD0A02BE2
:100C000009D0B02B07D0C02B05D0D02B03D0E02BC0
:100C100001D0F02B33D15B4A936823F0F003A16835
:100C20000B439360236813F0010F42D06368032BDA
:100C30002BD86368012B2ED09A1E012A32D9514A33
:100C4000126812F0020F00F096804E498A6822F076
:100C5000030213438B60FFF723FC0646494B9B6856
:100C600003F00C036268B3EB820F22D0FFF718FC8D
:100C7000801B41F288339842F0D9032097E740F275
:100C800075213F4800F016FDC5E74FF41F713C4841
:100C900000F010FDCDE73B4A126812F4003FD4D1BA
:100CA000012084E7374A126812F0007FCDD101207D
:100CB0007DE7324B1B6803F00F03AB4209D9EAB260
:100CC0002E4B1A701B6803F00F03AB4201D00120BA
:100CD0006DE7236813F0040F14D0E3685BB1B3F53C
:100CE000805F08D0B3F5A05F05D0B3F5C05F02D038
:100CF000B3F5E05F31D1234A936823F4E053E16810
:100D00000B439360236813F0080F15D023695BB180
:100D1000B3F5805F08D0B3F5A05F05D0B3F5C05F31
:100D200002D0B3F5E05F1ED1164A936823F4604306
:100D3000216943EAC1039360FFF7CAFE114B9B6828
:100D4000C3F30313104AD35CD840104B1860104B08
:100D50001868FFF765FB002029E740F2BA21084830
:100D600000F0A8FCC7E740F2C121054800F0A2FC52
:100D7000DAE701207047012019E700BF003C02407C
:100D80001C230008003802409424000814000020AE
:100D900008000020014B1868704700BF14000020B5
:100DA000FEE7000008B503460C4A12685AB10B4A28
:100DB0001068033323F003030344094A934206D81F
:100DC000064A136008BD054A06491160EFE700F0C6
:100DD00015FE0C2303604FF0FF30F3E78400002082
:100DE00000FC00202001002001230360014B0B6068
:100DF000704700BF0C0000202DE9F04385B0044689
:100E00000F4643560BB10E461EE0042528462146E8
:100E1000ABBE0446384605B0BDE8F08314F9011BAB
:100E200004AA1A4402F8101C0133AB42F6D304AAF8
:100E30001344002203F8102C4FF00408E946404602
:100E40004946ABBE8046761B002EE3D03546102EB9
:100E500028BF10250023E8E708B5FFF7CDFF08BD40
:100E60000FB400B583B004AB53F8042B0193802179
:100E7000064800F0F5FD002803DD01460348FFF7B2
:100E8000EBFF03B05DF804EB04B070478C0000206A
:100E9000F8B504460D4617461E462748FFF7E0FF03
:100EA00021682648FFF7DCFF61682548FFF7D8FF77
:100EB000A1682448FFF7D4FFE1682348FFF7D0FF7B
:100EC00021692248FFF7CCFF61692148FFF7C8FF7D
:100ED000A1692048FFF7C4FFE1691F48FFF7C0FF81
:100EE0001E48FFF7BDFF29461D48FFF7B9FF1D4CFF
:100EF000E16A1D48FFF7B4FF216B1C48FFF7B0FF04
:100F0000E16B1B48FFF7ACFF15F0800F0AD115F419
:100F1000004F0CD11748FFF7A3FF06991648FFF7BB
:100F20009FFFF8BD39461548FFF79AFFEFE73146B6
:100F30001348FFF795FFEDE74C2300085C230008FA
:100F40006C2300087C2300088C2300089C230008E5
:100F5000AC230008BC230008CC230008DC230008D5
:100F6000E823000800ED00E0F8230008082400084A
:100F700018240008482400085024000828240008E9
:100F80003824000883691A888A4201D000207047FB
:100F90000268033A012A03D80233836101207047B3
:100FA0000020704708B500F009F8024A024B9A6029
:100FB00008BD00BF0000000800ED00E0024B4FF04C
:100FC00000629A60704700BF00ED00E0224B9B6812
:100FD00003F00C03042B14D0082B16D01BB11F4BAD
:100FE0001F4A1A6002E01D4B1D4A1A601A4B9B688B
:100FF000C3F303131B4AD15C184A1368CB40136038
:101000007047164B184A1A60F0E7134B5A685B6832
:1010100003F03F0312F4800F13D0134AB2FBF3F234
:101020000D4B5B68C3F3881303FB02F30A4A526853
:10103000C2F3014201325200B3FBF2F3074A1360DC
:10104000D4E7074AB2FBF3F2034B5B68C3F38813A0
:1010500003FB02F3EAE700BF00380240140000205F
:101060000024F4009424000840787D0110B4012885
:1010700014D018B1022820D002200DE0164B1868B9
:10108000490003248C4020EA04001860186802FA22
:1010900001F101431960002010BC70470F4B186824
:1010A000490003248C4020EA04001860186802FA02
:1010B00001F1014319600020EEE7094B186849006F
:1010C00003248C4020EA04001860186802FA01F139
:1010D000014319600020DFE70000024000040240E5
:1010E0000008024010B4012814D018B1022820D002
:1010F00002200DE0164B9868490003248C4020EA3A
:1011000004009860986802FA01F101439960002098
:1011100010BC70470F4B9868490003248C4020EAAC
:1011200004009860986802FA01F101439960002078
:10113000EEE7094B9868490003248C4020EA04003C
:101140009860986802FA01F1014399600020DFE796
:1011500000000240000402400008024010B40128D0
:1011600014D018B1022820D002200DE0164BD86808
:10117000490003248C4020EA0400D860D86802FAB1
:1011800001F10143D960002010BC70470F4BD868B3
:10119000490003248C4020EA0400D860D86802FA91
:1011A00001F10143D9600020EEE7094BD8684900FE
:1011B00003248C4020EA0400D860D86802FA01F1C8
:1011C0000143D9600020DFE7000002400004024034
:1011D0000008024030B4012827D020B1022846D0B0
:1011E000022030BC704707290ED8314C236A890091
:1011F0000F20884023EA00032362236A02FA01F1E8
:10120000194321620020ECE7294C636AA1F1080030
:1012100080000F21814023EA01036362636A02FABE
:1012200000F0184360620020DBE707290ED8214C4C
:10123000236A8D000F21A94023EA01032362236A58
:1012400002FA05F1194321620020CAE7194C606ACD
:10125000A1F108039B000F21994020EA010161627E
:10126000616A02FA03F30B4363620020B9E70729BE
:101270000FD9114C636A083989000F20884023EA8E
:1012800000036362636A02FA01F11943616200209C
:10129000A7E7094C236A89000F20884023EA00034E
:1012A0002362236A02FA01F119432162002098E7C0
:1012B000000002400004024000080240012819D04A
:1012C00018B102282BD0022070474AB1012A3BD125
:1012D0002048436902FA01F1194341610020704737
:1012E0001C484369012202FA01F123EA010141612C
:1012F000002070474AB1012A28D11748436902FAF1
:1013000001F11943416100207047134843690122EC
:1013100002FA01F123EA01014161002070474AB15C
:10132000012A15D10D48436902FA01F119434161BF
:101330000020704709484369012202FA01F123EABB
:10134000010141610020704705207047052070476A
:1013500005207047000002400004024000080240DF
:10136000074B1A6842F001021A609A6822F00302E1
:101370009A609A689A609A6842F080029A60704710
:1013800000380240032822D8DFE800F0020A121ACF
:101390000F48036B012202FA01F119430163704700
:1013A0000B48436B012202FA01F119434163704774
:1013B0000748036C012202FA01F1194301647047E6
:1013C0000348436C012202FA01F11943416470475A
:1013D0000038024008B5022207210020FFF746FE30
:1013E000022205210020FFF741FE002207211046BE
:1013F000FFF778FE002205211046FFF773FE052255
:1014000007210020FFF7E6FE052211460020FFF726
:10141000E1FE022204210020FFF728FE0122042120
:101420000020FFF79BFE052204210020FFF7D2FEDB
:10143000024B40F247321A6008BD00BF0030014045
:10144000054BD860044B9B6813F0800FFAD1024B18
:10145000D868C0B2704700BF00300140064B1A6820
:1014600022F004021A601A6842F002021A601A6836
:1014700042F002021A60704710E000E0094B5A681F
:1014800002F07F425A605A681043586000229A6006
:10149000044B1B6813F4803FFAD0024B00229A6081
:1014A000704700BF10E000E010B582B00446012292
:1014B00000210846FFF702FF0DF107012046FFF764
:1014C000BFFF02B010BD10B582B004460022114625
:1014D0001046FFF7F3FE0DF107012046FFF7B0FFBE
:1014E00002B010BD08B5012200210846FFF7BEFD7D
:1014F000012211460020FFF7B9FD002211461046D7
:10150000FFF7F0FD002201211046FFF7EBFD01225D
:1015100011460020FFF7D2FE6420FFF7AFFF002244
:1015200001211046FFF7CAFE0120FFF7A7FF0122A5
:1015300011460020FFF7C2FE6420FFF79FFF002244
:1015400001211046FFF7BAFE6420FFF797FF012242
:1015500011460020FFF7B2FE0948FFF78FFF112068
:10156000FFF7B1FF0748FFF789FF3A20FFF7ABFF0E
:101570000520FFF799FF2920FFF7A5FF08BD00BF51
:10158000C0D40100F0490200F8B507460E461546E2
:101590001C462A20FFF797FF0020FFF785FF3846FB
:1015A000FFF782FF0020FFF77FFF3046FFF77CFF49
:1015B0002B20FFF788FF0020FFF776FF2846FFF774
:1015C00073FF0020FFF770FF2046FFF76DFFF8BDA7
:1015D00038B505469F2300227F211046FFF7D4FF30
:1015E0002C20FFF770FF00240AE035F81400000AF1
:1015F000FFF75AFF15F81400FFF756FF0134A4B2A5
:10160000B4F5A04FF1D338BD70B594B00024019467
:10161000214B1A6C42F080521A641B6C03F0805309
:101620000193019B02941D4B1A6842F440421A60D8
:101630001B6803F440430293029B012308934FF479
:10164000803309934FF480030F93192310934FF4C1
:10165000A8731193042612960723139302250E955F
:1016600008A8FEF7BBFF0F230393049505944FF4DE
:10167000805306930794294603A8FFF77DFAFFF7E6
:1016800089FB074BA3FB00308009FEF773FF304650
:10169000FEF786FF14B070BD0038024000700040B5
:1016A000D34D621008B5FEF7E1FEFFF7ADFFFFF77F
:1016B0008DFC08BD08B50A4601460248FFF7D0FB7D
:1016C000FEE700BFA424000808B5FFF749FE00218B
:1016D0000846FFF757FE0C210320FFF753FEFFF7E4
:1016E000BDFEFFF777FEFFF7FDFE0248FFF770FF34
:1016F000FEE700BFD42400087047000053B94AB980
:10170000002908BF00281CBF4FF0FF314FF0FF3009
:1017100000F072B9ADF1080C6DE904CE00F006F8E6
:10172000DDF804E0DDE9022304B070472DE9F0475D
:10173000089E04468846002B4BD18A42154667D93D
:10174000B2FA82F24AB1C2F1200701FA02F320FA9A
:1017500007F7954047EA030894404FEA154E230CDB
:10176000B8FBFEF71FFA85FC0EFB178843EA084317
:1017700007FB0CF1994209D9EB1807F1FF3080F013
:101780001B81994240F21881023F2B445B1AA4B29C
:10179000B3FBFEF00EFB103344EA034400FB0CFCE9
:1017A000A44509D92C1900F1FF3380F00781A44525
:1017B00040F2048102382C4440EA0740A4EB0C04B8
:1017C00000271EB1D4400023C6E900433946BDE8D6
:1017D000F0878B4209D9002E00F0EB800027C6E984
:1017E000000138463946BDE8F087B3FA83F7002F89
:1017F00047D18B4202D3824200F2FA80841A61EB15
:10180000030301209846002EE0D0C6E90048DDE73A
:1018100002B9FFDEB2FA82F2002A40F08F80491B43
:101820004FEA154E1FFA85F80127B1FBFEFC230C89
:101830000EFB1C1143EA014308FB0CF1994207D946
:10184000EB180CF1FF3002D2994200F2CD808446B1
:10185000591AA3B2B1FBFEF00EFB101443EA044484
:1018600008FB00F8A04507D92C1900F1FF3302D27C
:10187000A04500F2B6801846A4EB080440EA0C40EC
:101880009FE7C7F1200CBB4022FA0CFE4EEA030E84
:1018900001FA07F420FA0CF521FA0CF34FEA1E487E
:1018A0002543B3FBF8F92C0C08FB19331FFA8EFA09
:1018B00044EA034309FB0AF49C4202FA07F200FAE5
:1018C00007F10BD91EEB030309F1FF3080F087808D
:1018D0009C4240F28480A9F1020973441B1BADB203
:1018E000B3FBF8F008FB103345EA034400FB0AFAA7
:1018F000A24508D91EEB040400F1FF336BD2A245C8
:1019000069D90238744440EA0940A0FB0289A4EB7B
:101910000A044C45C2464B4654D351D0002E69D0E0
:10192000B1EB0A0564EB030404FA0CFCFD40FC4037
:101930004CEA0505C6E90054002747E7C2F1200339
:1019400020FA03F7954001FA02F021FA03F34FEA77
:10195000154E3843010CB3FBFEF71FFA85F80EFB5A
:10196000173341EA034107FB08F38B4204FA02F400
:1019700007D9691807F1FF3C2FD28B422DD9023FBE
:101980002944CB1A81B2B3FBFEF00EFB103341EABF
:10199000034100FB08F38B4207D9691800F1FF3CB3
:1019A00017D28B4215D902382944C91A40EA074791
:1019B0003BE73746304609E70746E7E61846FBE6C9
:1019C0004145ABD2B8EB020A69EB0E02013813466F
:1019D000A4E76046E9E7184695E76746D1E7814600
:1019E0007CE702382C4447E7ACF1020C2B442FE78C
:1019F000384608E73746E9E6704700BF014B1868EC
:101A0000704700BF1800002030B5141E05469BB07B
:101A1000184605DA8B232B604FF0FF301BB030BD2A
:101A20004FF40273ADF80C3014BF04F1FF332346BA
:101A3000029305934FF6FF7300910491ADF80E30B9
:101A400002461E9B6946284600F072F8431CBCBF44
:101A50008B232B60002CE1D0009B00221A70DDE765
:101A600007B5009313460A46014603480068FFF78E
:101A7000CBFF03B05DF804FB180000202DE9F04710
:101A80008E689E4282460C469046994637D88A898F
:101A900012F4906F31D0256809696F1A65690223C5
:101AA00005EB450595FBF3F509F101033B449D4228
:101AB00038BF1D46530530D5294600F07BFB06464E
:101AC00050B90C23CAF80030A38943F04003A38126
:101AD0004FF0FF30BDE8F0873A46216900F0F8FA90
:101AE000A38923F4906343F08003A3812661656199
:101AF0003E44ED1B2660A5604E464E4500D94E463D
:101B000032464146206800F0EEFAA3689B1BA360B2
:101B100023681E4426600020DCE72A4600F0A4FB70
:101B200006460028E2D12169504600F0F5FAC8E7E0
:101B30002DE9F04F9DB0804603938B891D060C461E
:101B400016460FD50B696BB9402100F033FB2060BE
:101B5000206128B90C23C8F800304FF0FF30C7E0EF
:101B6000402363610023099320238DF8293030231B
:101B70008DF82A304FF0010B37463D4615F8013BF2
:101B80000BB1252B3ED1B7EB060A0BD0534632469C
:101B900021464046FFF772FF013000F0A480099B08
:101BA000534409933B78002B00F09D8000234FF0B5
:101BB000FF32CDE90523049307938DF853301A9330
:101BC0002F46052217F8011B4F4800F031FA049BFD
:101BD000D0B9D90644BF20228DF853201A0744BF3C
:101BE0002B228DF853202A782A2A15D0079A2F46BF
:101BF00000200A25394611F8013B303B092B4DD90D
:101C0000B8B10FE02F46B8E73F4A801A0BFA00F050
:101C1000184304903D46D3E7039A111D12680391BF
:101C2000002A01DB079204E0524243F002030792CC
:101C300004933B782E2B0CD17B782A2B33D1039B3A
:101C40001A1D1B680392002BB8BF4FF0FF330237F9
:101C500005932E4D39780322284600F0E9F938B172
:101C60004023401B03FA00F0049B03430137049315
:101C7000397827488DF8281006227E1C00F0D8F904
:101C8000002838D0234B13BB039B073323F00703F3
:101C900008330393099B4B4409936DE705FB02321C
:101CA00001200F46A6E700230137059319460A25B0
:101CB000384610F8012B303A092A03D9002BC8D036
:101CC0000591C6E705FB012101230746F0E703ABB9
:101CD00000932246104B04A94046AFF30080B0F1B8
:101CE000FF3F8146D6D1A3895B063FF536AF099801
:101CF0001DB0BDE8F08F03AB00932246064B04A94C
:101D0000404600F081F8EAE7D4C40008DAC40008CD
:101D1000DEC40008000000007D1A00082DE9F0472D
:101D200091461F468A680B69DDF820809342B8BF50
:101D30001346C9F8003091F8432006460C4612B10C
:101D40000133C9F800302368990642BFD9F8003042
:101D50000233C9F80030256815F0060507D104F1F3
:101D6000190AE368D9F800209B1AAB4228DC94F8E2
:101D700043302268003318BF012392062DD404F1AA
:101D8000430239463046C047013020D02368E56819
:101D9000D9F8002003F00603042B08BFAD1AA3688E
:101DA00022690CBF25EAE57500259342C4BF9B1A42
:101DB000ED184FF000091A344D451AD1002008E003
:101DC0000123524639463046C047013003D14FF017
:101DD000FF30BDE8F0870135C3E7E1185A1C302019
:101DE00081F84300224494F8451082F843100233EE
:101DF000C5E70123224639463046C0470130E6D0C8
:101E000009F10109D8E700002DE9F04301F1430C85
:101E10000C46097E85B06E291746064698460C9AF0
:101E200000F0B38022D8632936D00AD8002900F008
:101E3000B980582900F0838004F1420584F84210EB
:101E400032E0642901D06929F6D1206813680506BB
:101E500003F104012AD51B681160002B03DA2D223F
:101E60005B4284F843206F480A2239E0732900F06E
:101E70009D8008D86F2920D07029DDD1236843F0D8
:101E80002003236003E0752917D07829D4D1782363
:101E900084F84530644855E01368191D1B681160CB
:101EA00004F1420584F8423001238CE01B68116084
:101EB00010F0400F18BF1BB2CFE713682568181D3C
:101EC0001060280601D51B6802E06806FBD51B8858
:101ED00054486F2914BF0A220822002184F84310B5
:101EE0006568A560002DC0F29580216821F004018D
:101EF0002160002B3DD1002D40F08E806546082AE0
:101F00000BD12368DB0708D5236962689A42DEBFDC
:101F1000302305F8013C05F1FF35ACEB05032361E7
:101F2000CDF800803B4603AA21463046FFF7F6FE77
:101F300001304DD14FF0FF3005B0BDE8F083394896
:101F400084F84510136821681D1D1B6815600A067A
:101F50000BD5CA0744BF41F0200121601BB922689C
:101F600022F0200222601022B7E74D0648BF9BB244
:101F7000EFE76546B3FBF2F102FB1133C35C05F8F2
:101F8000013D0B460029F5D1B9E713682568616961
:101F9000181D106028061B6801D5196002E06A064A
:101FA000FBD51980002323616546B9E71368191D25
:101FB00011601D6862680021284600F039F808B1F8
:101FC000401B606063682361002384F84330A7E707
:101FD00023692A4639463046C0470130AAD02368D3
:101FE0009B0713D4E068039B9842B8BF1846A3E749
:101FF00001234A4639463046C04701309AD0013560
:10200000E368039A9B1AAB42F2DCEBE7002504F18C
:102010001909F5E7002BACD1037884F8423004F1BC
:1020200042056CE7E5C40008F6C4000800000000A3
:1020300001F0FF01102A2BDB10F0070F08D010F879
:10204000013B013A8B422DD010F0070F42B3F6D17D
:10205000F0B441EA012141EA014122F007047FF096
:1020600000070023F0E80256083C85EA010586EAED
:10207000010685FA47F5A3FA87F586FA47F6A5FA29
:1020800087F68EB9EED1F0BC01F0FF0102F0070235
:1020900032B110F8013B013A83EA010313B1F8D1E0
:1020A0000020704701387047002D06BF35460338C1
:1020B000073815F0010F07D1013015F4807F02BFFA
:1020C000013015F4C03F0130F0BC0138704700BF4B
:1020D00010B5431E0A44914200D110BD11F8014BC6
:1020E00003F8014FF7E7884210B501EB020307D868
:1020F000421E99420AD011F8014B02F8014FF8E74D
:102100008342F5D98118D21AD34200D110BD13F8F9
:10211000014D01F8014DF7E738B50546002945D0D6
:1021200051F8043C0C1F002BB8BFE41800F0D2F8A3
:102130001F4A1368104633B9636014602846BDE82F
:10214000384000F0C8B8A3420CD921686218934205
:1021500004BF1A685B68636004BF521822600460A1
:10216000ECE713465A680AB1A242FAD9196858181E
:10217000A0420BD120680144581882421960DDD179
:10218000106852685A6001441960D7E702D90C23DD
:102190002B60D3E7206821188A4204BF1168526877
:1021A000626004BF091821605C60C7E738BD00BFEA
:1021B0000C01002070B5CD1C25F0030508350C2D51
:1021C00038BF0C25002D064601DBA94203D90C239C
:1021D0003360002070BD00F07DF8214A146821466C
:1021E00091B9204C23681BB9304600F063F8206099
:1021F0002946304600F05EF8431C24D10C2333609E
:10220000304600F068F8E4E70B685B1B18D40B2B32
:102210000FD90B60CD50CC18304600F05CF804F1BB
:102220000B00231D20F00700C31AD3D05A42E250FE
:10223000D0E78C424B6816BF636013600C46EBE737
:102240000C464968CCE7C41C24F00304A04205D026
:10225000211A304600F02EF80130CFD02560DBE7A0
:102260000C01002010010020F8B5074614460E4668
:1022700021B91146BDE8F840FFF79CBF22B9FFF72E
:102280004BFF25462846F8BD00F026F8A0420FD2A5
:1022900021463846FFF78EFF05460028F2D031462A
:1022A0002246FFF715FF31463846FFF735FFE9E7CD
:1022B0003546E7E738B5064C002305460846236057
:1022C000FEF770FD431C02D1236803B12B6038BDBB
:1022D000180100207047704751F8043C181F002B6C
:1022E000BCBF0B58C01870472E2E2F7379737465BE
:1022F0006D2F7372632F73746D333266342D686182
:102300006C2F73746D3332663478785F68616C5FFC
:10231000636F727465782E63000000002E2E2F7399
:10232000797374656D2F7372632F73746D333266B6
:10233000342D68616C2F73746D3332663478785F36
:1023400068616C5F7263632E6300000053746163A5
:102350006B206672616D653A0A00000020523020E1
:102360003D2020253038580A00000000205231203E
:102370003D2020253038580A00000000205232202D
:102380003D2020253038580A00000000205233201C
:102390003D2020253038580A0000000020523132FC
:1023A000203D20253038580A00000000204C5220E3
:1023B0003D2020253038580A0000000020504320DE
:1023C0003D2020253038580A00000000205053528C
:1023D000203D20253038580A000000004653522F77
:1023E0004641523A0A0000002043465352203D2005
:1023F00020253038580A00002048465352203D20FE
:1024000020253038580A00002044465352203D20F1
:1024100020253038580A00002041465352203D20E4
:1024200020253038580A0000204D4D464152203DAD
:1024300020253038580A00002042464152203D20D5
:1024400020253038580A00004D6973630A000000E7
:10245000204C522F4558435F52455455524E3D2013
:10246000253038580A0000005B4861726446617587
:102470006C745D0A000000005B4275734661756C08
:10248000745D0A005B55736167654661756C745DC8
:102490000A00000000000000000000000102030428
:1024A0000607080957726F6E6720706172616D656B
:1024B000746572732076616C75653A2066696C6527
:1024C000202573206F6E206C696E652025640D0ACF
:1024D0000000000090256F1D4F1D4F1D6F256F25BB
:1024E0006F256F254F1D7025B12DF22DF22590150A
:1024F0006F0D50056F15D1251236D12DB12D9025B8
:102500004F1DB025D02DD12DF235F23DB02D6F1DD0
:102510008F15D015702DF135333E1236B135EB13D2
:102520002502A5118519A411A40984114421E210E2
:1025300064190201E4016D24CE1CB11D900D6F05DC
:102540006F15CE34F4A51AFF98FE5AFF34A6681B07
:10255000880BE602A90268025044891A2A23F34D27
:10256000D12DEE2426128521641984098411441981
:10257000E310A20807036D1C4D248A0B6D1C702DFF
:10258000701D701DB0254F1D6F1DB025B02D9135EC
:10259000103DEC230A3B8C3B8F447255103D8E2C32
:1025A0008E2C0C1C8E243025701590058F056F0D18
:1025B000B125B12DB135B12DD125D11DD11DB11D03
:1025C000912D913DF245F23DF135D12D2F1D302D4C
:1025D00031453255902570256F1D70256F256F256B
:1025E0006F2570252F1D7025B12DF22DD11D700D79
:1025F0004F0D70054F15901D1236F235B12D9025F7
:102600006F1DB025D02DD12DF235F135B02D8F1D98
:102610008F158F15B01DF12D3236123690358A1375
:102620000502C5196411A40984092201441923195A
:10263000E20822018A13EF2C912DB11DF21DD01555
:102640004F15EE44D7CE3AFFF9FE39F718CF6D5447
:10265000CA1B2B144C1B304C715C2B2BC8026A0B11
:10266000CF3C8B2346124309C21023214319020198
:10267000830187128D14CF242C1C8A03EB0B912D20
:102680007025901D6F1D6F25902590259025913503
:10269000EF342D2CCF440C242C1C713DB245303529
:1026A000EF2C8D1C3025911D900D8F058F056F052A
:1026B000901DB125D235B12DB125B125B11DB12562
:1026C000B12DF23DF23DF23D123ED135502D302D6F
:1026D0007245724D912D912D902590256F256F2576
:1026E0006F2590259025B025D12DD125B01D6F0DDA
:1026F0004F056F054F0D901D12361236B12D9025E6
:102700006F1D8F1DB025D12DF135F135D135B02597
:10271000B01D8F15AF15D01D3236533ED13D691314
:10272000A4014309231143094309E2000319E310FB
:10273000A10067222F355035EF1C0F15D115121E41
:10274000EE24D3855AEF18F7F7F638F75AF7528D7B
:102750002C2C8C0CEE331475758DEE434A13460207
:10276000E611E619E511C409031941108100E401DD
:10277000CA0B2F250F25AE1C4D1C0C148A035025A7
:102780007025B0259025B02D90259025B12DB1351F
:10279000AE246D2CD13D2F2D0E1D9135F23DB13D56
:1027A000302D8D14501DB11D900D6F058F0D6F0DC7
:1027B000901D9125B12DB12DB12DD22DD12DB12D41
:1027C000D12DF235D235D1351346D245913D302D3C
:1027D0007235923D912DB12DB12D90256F256F252C
:1027E00090259025B12DD12DF12DD12590156F0D6E
:1027F0004F056F054F15901DF2351236B12D9025FE
:1028000090258F1DB025D12DF135F23DF135F12DFB
:10281000D0258F15B02D902DD135123EB13D8A0BAC
:10282000E40143090311C208E208E310C210A10049
:1028300002010C3C902D502D8D140F0DD115701DE3
:102840000F4D19CF79F738E737EF39FF36E6129D8C
:102850008E444B044A0BEE3B799E126D0A234712BD
:102860000201031143094301E100E200671AAE349B
:10287000B02D8F0DCE146D148E248E248903CE1CA2
:10288000B12DD12D7025902D7025B025D12DB135CC
:102890008D24EF3CD12D123E123ED135B23DB135E3
:1028A000302DAD14EE1CEF1CCF1CEF1CEF1C2F1DA8
:1028B000912D9125B025B12DD235D235B135B12D1F
:1028C000D12DD22DF135D235F245D345D245923DA9
:1028D000B23DD33D702DB12DB12D90256F256F25C3
:1028E0009025B02DD12DD12DD125B01D9015900D55
:1028F0008F0D90056F15901DF12D1236D135902D4D
:10290000B025B025B025D12DF135F23DF235F135A8
:10291000B0256F150F2D5035B13D3346F23DCB0B31
:1029200045026301E200C1008100A100A100020193
:1029300045028D2C4F150F25502D7015F115CD1C0E
:10294000F59D5BF759EF78DF58EF56EE50B4708C79
:10295000CF548E1CAE244D24F0442E44A922061AD6
:102960006409E200C100010145026D24B24D913DB0
:102970004F256F0D0F1D8E148E1C8E1CAA034C0C40
:10298000F23DB12D7025D12DD12DF12DB02D2F255A
:102990004C14503DF23DF23DD23DB13DB23D91353A
:1029A000502D0F258E242D240D2C2D34EC236D2439
:1029B000712D9125D12DD135D135912D712DB13577
:1029C000D235F235F235123EF23DF345F345144E61
:1029D000F44DF4457025B12DB12D9025702590252D
:1029E000B02DD12DD12DD12DD025B01D9015901504
:1029F000900D8F0DB01DD125D12D1236D135902DD2
:102A0000902590258F259025B12DD135F23DF235B9
:102A1000D025901D4F1D702DB135F23DF23DEE24B5
:102A2000CF34CF3C0D2CEC2B2913870AA702CB1BEC
:102A30000F2DB02D4F15EE144F1D6F152E15305D57
:102A40003AE73AFF38EF37DFD6DEB0BCCD9B4F8C8C
:102A50008F5CD0440F355035CE1C0F3D2D44A40162
:102A600022014201660A4C2CF23D3236D12DB1359D
:102A7000912D4F1D301DEF1C8E146D140C0CEB03AB
:102A8000B235902DB135F135F1351236B12D2F25F6
:102A90008D1C913D123ED135D135B13DD23DD13560
:102AA00070255025EF2C4D240D2CED338B1B4D1C28
:102AB000912DB11DB02DD12DD12D912D912DB2354E
:102AC000D23DD235D235133EF33D344E144E3556F9
:102AD000934D52459125B12DB12D90259025B12DC5
:102AE000D12DD12DD12DF12DD12DB025901DB01589
:102AF000B015B00DB01DF125D12DF235F235902D68
:102B000070256F1D6F1D6F25902DD135123EF2354A
:102B1000D12DB025D015D11DB12DF23DB23DEF2400
:102B2000502D912DF235533E94463346334653464D
:102B3000F22D0E0D5025EE0C0D050D15CE4496B65A
:102B40007AFFF8FEF8F696E671BD0D942E9C9094EF
:102B50007074D0643165504DB0352F2D0703E401FA
:102B60008A2B3045124E333E3236122E1226112E4B
:102B7000B12D702D0F150F1DCF1C8E1C6D148A03E7
:102B80000F25B135912DB02DB02DD12DF135B135A9
:102B90009035D2453126122E323ED235D135D22D46
:102BA000901D6F1590250F1D8E1C8E246D1CEE1C24
:102BB000D125F11DB025B02DB12DD135D23DD23D5D
:102BC000B23DD23DD23D13463346344E355ED45DE0
:102BD000535513559125D22DD12D90259025D12DCA
:102BE000F12DD12DB02DD12DF12DB025901DB01D81
:102BF000D01DD01D9015D1259025D135F23D902DB9
:102C0000902590258F258F25902DD135123EF135B9
:102C1000B02DB025D00DB0159025F23DF23D0E1D22
:102C2000701DB01D3226111E732E332E3336122E18
:102C3000F12DD125102D2F0DAF0D0D35D29D59FF42
:102C4000D7F6B6EE76F6F5E50D940D84EE83EE8BB1
:102C50002F846F742F748F64304D8D2CEB1B304D8F
:102C6000535632361126122E123E12361226111EDD
:102C7000B025502D501D301DCE148E14AE1CAA034D
:102C8000AD1CB13D9135D135D12DD12DD12DB02DEA
:102C9000D135D13D722E322E323ED23D9135B135F5
:102CA000901D9015B01590150E0D2F1D9125B12575
:102CB000F125F125112EB025902DD135D23DB23D13
:102CC000D235133E334633463456D355F56D946DA5
:102CD000956DB67DB125B125B125B125B125D12D93
:102CE000F1351236F135B02D9025B025B025D1251E
:102CF000F125F125D11DB01DB025B135D135B13546
:102D0000B02DB0258F1DB025B12DD135F23D123E2D
:102D1000F135B125901D4F1D7025912DD2352F1500
:102D2000D11DF11D532E322E743E7446333E333E78
:102D3000743ED1253025701D6F2DD17D18EFD7FE43
:102D400095EED6EE56F64FBCEE930E84EE7BEE8BF0
:102D5000CD830D84AE93AD730D648F64F064304DFC
:102D6000D0357126311EF12D1346123E1226321E29
:102D7000B01D5025711D3015CE0CCF1CAE1CEB03C1
:102D80002C0C913DB135B12DD12DD12DD02DD1357A
:102D9000D135F13DF12DD13591357135913D9135DB
:102DA000912D901DD11D6F0D4F0D701D9125B12DD1
:102DB000D22DF2351126F12DB12DB135B23D133E94
:102DC000333E333E7446F34DD45D167EF68DB685A4
:102DD000B685D785B125B125B125B125D125D12D10
:102DE000F12DF135F135D02DB02DD12DB02DD12DC6
:102DF000F12DD125D01DB01DB025B135D135B1355E
:102E0000902DB0258F25B025B02DD135123E333E03
:102E10001236F12D90254F1D4F1D7025B12D4F15E8
:102E2000D11D1226122E333E1346F345544E333E27
:102E30003336F22DD11DCE24916DB6CEB6EEB5FE51
:102E4000D6FEB6F632CDCE9BAE8BCE83AD7BAD83B8
:102E50006B836B832C8B6D8B8D83AD7BAD6BEC4B60
:102E6000CE34B0251126112EF235F23D122E322627
:102E7000122EB12D911D0F15EF14AE148E142C14BB
:102E8000EB0B2F2DB135902D90259025D135F23DAE
:102E9000F23DF135D245D245B13D913D913DB1353F
:102EA000B12D912590254F154F15701D9125B12DF0
:102EB000B135B23DF12DF12DD235D23DF23D133E6B
:102EC000533E7446F3451466578E58A6F7A5B79D32
:102ED000D795188EB125B1259125B125F12DF12D6C
:102EE000F135F135F135D135D135B12DB02DD12DAB
:102EF000D12DD125B015901DB025B135D135B135C5
:102F0000902DB0258F1D8F1D9025B12DF235323EAD
:102F1000323E1236D11D6F154F152F1D90254F1DB6
:102F2000F125522653361236133E333E743673362D
:102F30007436D125AF0D304D57D6D8FE74EE53EE12
:102F400054F6D3E50D9C8D838E836E8B6D838C7BC5
:102F50002A7B2A830B830B832C834C7B4C734B6320
:102F60008C532C346F25111E1126333E333E122E06
:102F7000322EB01D711D0F0D0F158D0C6D148E1C92
:102F8000AA03CE249135902DB025B02DD135F23D38
:102F9000F23D123EF24DF245D23DD135F135F12DE3
:102FA000D12DB125701D4F15701DB125D12DD135F5
:102FB000D235B23DD135F23DF23DF235133E744685
:102FC00074461346D35D778EDAB69ABE18B6F8AD5E
:102FD000189E399EB12DB1259125D12DF23512368D
:102FE0001136F135D135D135D135B02D9025B125FA
:102FF000D125B025901590159025B135B135B13555
:10300000902DB025AF1D8F1D8F1D9025D135123607
:10301000323E3236F1256F154F152F157025701D74
:10302000F125522E7336122E3336732E73269326C5
:10303000942EB01D6D15917D37F6D5FD75FEB5EE5C
:1030400033E68EBC8B8BAD7BAE834D832C832B7B89
:10305000097329730A73EA7AEA722B734C732C7B17
:10306000EB6A0A4B2C2C4F15111E5336133ED235EA
:10307000F22DB01D91252F150F15AE0C4C0CAE2462
:10308000CB0BAD1C902DB02DD12DD135D135D135F7
:10309000F23D123E1246123EF135F12D122EF12D67
:1030A000D125901D6F156F15B015F125122EF23533
:1030B000D23DB23DB13DD13DF23D3336533E544653
:1030C0005456F465778EFAB61BCF9AC639B639AE28
:1030D00039A6399ED235B12DB12DD13512361236E1
:1030E0001136F135D135D135D135B12DB025B125D8
:1030F000D125901D6F0D70159025B135B135B135C5
:10310000902DB025B01D8F1D901D9025B02DF1354F
:103110003236533ED13570252F1D0E154F1D701DB3
:10312000F125322E3336333E123E122EB42E932624
:103130003226901D2D4534B616FED5FDF4F533DE4E
:1031400071BD4A834B8B8D83AD7B4C730B7BEA82C5
:10315000E9722963096B0A6B0A6BEA6AEA6AEB6A2D
:10316000EB62CA5A0A430C2C90253226F12DD13538
:10317000D12D111EB125701D0E0DCE146D148D1C98
:10318000EB138D1CB135D12DD12DD135F23DF23D52
:10319000123E123E323E1136F12DF12DF22DF23556
:1031A000B12D70254F156F15D11D1226122EF23537
:1031B000D23D913DB145B23D333E743E533EF34561
:1031C00015667796DABE1BCFFBCE9ABE79B659AE9E
:1031D00039A639A6B135B135D235F23D123E123E8F
:1031E000F135F135B02DB02DD02DD12DB125B02533
:1031F000B01D6F158F0D901DB025D135D135B1356E
:10320000B02DB025AF1D8F1D8F1D6F1D9025B02DCA
:103210001236533ED24D50352F25EE140E156F1534
:10322000D11D322E1236F345D245F235532E532E90
:10323000D12D8D14675374D615F6F5FDB4F5B3D5BD
:103240008E9C8B834B836C838C734B730A7BCA7A03
:10325000C96A095BE862095BE962C96ACA6A0A630A
:103260000A53CA5A2952CA42AE34D01D1126F23529
:10327000D12D3226B12D91250E0DEE146D144D1C5D
:103280002C1C6D1CB135F12DF235F235D23DD23DFD
:10329000D23DF235123EF135D12DD135F235F23D28
:1032A000B135702D7025B125F22D122EF22DD235AB
:1032B000D23DB23DD245134654463346F34D1566D2
:1032C000578E79AEBAC6FBD6FBCEBABE99B638A633
:1032D000F89D39A650359135D23DF245123EF23D6A
:1032E000F13DF13DD135B02DB02DD12DD125B01D01
:1032F00090154F0DB015B01DD12DD235D23DD13521
:10330000D12DD025AF1D8F1D6F1D6F1D6F1D9025F9
:10331000F12D32361346B13570250E150E154F15A9
:10332000B01D12261236D135F23D1236122EF2356C
:1033300030352913C99B54EEF3E5B3E5B4E5F1BC90
:103340006A7B4A6B6B7B4B7B4B734B732A6BE96AD3
:10335000E96AE962C85AC85AA862C96A0A632B6353
:103360000B63AA62495A694A8C330F2DF12D32261C
:103370001126F125B12D91252F150E15AD146D1CBB
:103380004C1C4C14B135F22D1236F235B135913555
:10339000D2351236F245D13DD135D135F135F23540
:1033A000D235B135B13DB23DF23DF23DD235D235E7
:1033B000123E1236133E5346334ED34DF465378ECC
:1033C00058AE38B67AC6DBD6DBCEBAB679AE189E22
:1033D000D795189E0F2D7135D23DF245F245F23D3D
:1033E000F13DF23D123ED12DB02DD125D125B01D9C
:1033F000B0158F0DD015D125F12DF23DF23DD13D07
:10340000D135D125D01DAF1D8F1D8F1D8F25902546
:10341000D12D12365336112ED0254F150E154F1DB6
:103420008F15111E111E322E1226F11D322EB135AE
:103430002D2C27124FEDB1EDF2DDB3DD52D5AC9B53
:103440002A7BAC7B8B732A730A732A732A6B095B02
:10345000E962C96A0853A86A8872A862E952EA5AFE
:10346000CB72CB72EB62A942A92A2D34902D111692
:10347000321ED02D91259025701D0E15CE1C8E2448
:103480006D244C14B135D12DB12DB12DB135D23DB6
:10349000F23D1236D245D145D135D135F12D122E1E
:1034A0001236F23DD245B245D24DB2459135D235B4
:1034B000332E532E53361236F34515661686D6959F
:1034C000F7AD59BE9ACEFBD6DBC679B638A6D795EE
:1034D000B68DF7954D2C8E34103DB245F345F3452E
:1034E000D23DD13DF135F135F135D02DD025B01D8E
:1034F000B01D8F15AF1DD025F12DF235F235D13528
:10350000B135B12DB12DB125701D6F156F15901509
:10351000D115111E1236322E11266F1D0E1D0F15DC
:10352000B01532261236F235122E121ED225F04474
:1035300083198B83B2ED92E572D592D5AFAC2A7325
:103540006B7B4B7B4B7B2B7B0A730A73096BE96AA2
:10355000E962E862C96AC862C862C962E962095B75
:103560004A5B6B630A6B896A695AA9428E44B0351B
:10357000D02511267035F12DB00D4F050F0DAE146D
:103580006E1C8D14712D702DB12DB12DF12D122EBB
:10359000F235D245F23DF235122EF235D23DD23D12
:1035A000F2351236123EF23DD235B135B245F34511
:1035B000543E74269365736D947D9585968DB7956D
:1035C00019A67AB6DBCEDBCEBBC65AB6F89D758D92
:1035D000538D92952C2C4D2CAE2C3035B23DF345AD
:1035E000F23DD135F135F135F135D02D8F258F1DD7
:1035F000B01DB01DB01DD125F135F23DF23DF23DBB
:10360000D135D12D9025901D6F1D4F154F1570157B
:10361000B015F11DF2355336522EB0250F1D0F1582
:103620007015D11DD12DF235122EF21D711D0C2CED
:10363000E4298FACB2E571DD71D531C5CC8B4A7B05
:103640004B736B7B2B732A730A730A730A73096BB0
:10365000296B0963096BE962E96AE96AE962E95A77
:103660002A5B4A630A630B73895AA94A6A330F3D7E
:10367000D02DF01D9135F12DB0154F0DEE148E1497
:103680008E1CAE1C712D912DB12DB12DF12D122E50
:10369000F235F23DF135D13DD13DF23D123EF23DE4
:1036A000F23D123ED135D235D235D23DF23D133EF8
:1036B0001346344E936D536D537D5485558D9695B9
:1036C00018A67AB6BAC6BACE9BC639AEB79D1385D0
:1036D000F18C51952C244D246D24AE24302DD23DF7
:1036E000133EF23DB12DD135D135D02DB025B025C9
:1036F000B01DB01DB025B02DD135F23DF23DF23DEB
:10370000D135D12DB1259025701D6F1D6F15701508
:103710009015D11DB12D32367236D12D0F1D0F15DA
:103720009015B01D1236F235D1259115301D291B8B
:10373000464272CD92E551D572D58FAC297B6B7B19
:103740004B736B7B2B732A730A730A730A73096BAF
:10375000096B0963096309630A6B0A6BE962E95A39
:10376000095B2A630A634C73CA62A952883AEC3B2C
:103770007035D025F1353236B12D4F1DCF148E1452
:103780008E1CAE1C502D912DB12DD125112E12362F
:10379000F235D135D12DB13DB145F2451236123653
:1037A000F23DF23DD235F235F23DF23D123E334666
:1037B000D35D736D53751275D174D27CF384759596
:1037C000F8A559B6BAC6BAC67ABE18AE7595B18410
:1037D0008E840F9D4D2C6D2C8E24AE24EF24702DE5
:1037E000D235333ED135B02DB02DB02DF12DF12D88
:1037F000D125B01D912DB12DB12DD12DF135D13562
:10380000D135D135D135D12DB01D901D7015701524
:10381000701D9025902DF12D5236123650250F1522
:10382000911DF225533EF23D70252F150F25A6124E
:10383000C85A93DD71DD51D551CDEC932A736B7B62
:103840006B734B734B732B730A730A73E96AE96AE0
:10385000E862C862E852C95AE96AEA72096B096308
:103860000A632A6B4B634B632B6BCA62A95AE93A12
:103870008D34B02D112E1236B135302DCF1C8E1453
:10388000AE1CAE1C302DB12DF125F12D1236F235C6
:10389000D135B12DB035D135D13DF245F245F23DAE
:1038A000123E133E333E13361236333E334EB35D73
:1038B000126DB16CB17470744F7C507CB2843495CD
:1038C000D79D58AEBABE99BE79B6F7A534956F8428
:1038D0004C8CCCA46D2C6D24AE24CE24CE1C0F1D9C
:1038E000702DF235123EF135B12DB02DD12DF12DC7
:1038F000F12DD125913DB135B12DD12DF12DF12DE8
:10390000F13DF23DD135D02DB025B01D901570158B
:103910007025712DB02DD02D312E323E912D0F15E9
:103920007015F22D123EF23D90250F15CE2C45124A
:103930006A73B2E551D571D5AFB44A834A7B6B7BCC
:103940006B734B732B730A73EA72E96AC96AC962B3
:10395000C862C862E852C85AA862C96AE96A0A63BA
:103960000A6B4A6B4B6B2A634B6BEB72CA6A8842D9
:103970008A332F3DF01DF12D9135302DCF1CAE1423
:103980008E1C6D1C0F25F235122E112E123EF23DAB
:10399000D135D12DB13DF1351236123EF245F24509
:1039A000133E333E333E1236333E544EB365906C75
:1039B0000E642F6C2F740F740F7C2F84718C1395F1
:1039C000B6A537AE99B699B658B6F7A533956E8CAD
:1039D0004B9CCBB46D246C248D24CE240F1D0F1D65
:1039E0002F1D7025F235F235F235F135D135D12D57
:1039F000D12DB125B235B135B12DB12DD12DD12D6E
:103A0000F13511361136F135D02D9025701D4F1D31
:103A1000501D7025902DB025F12D323EF23D501DE8
:103A20005015F22D123EF13D902D0F1DAE34241A8B
:103A3000CB9371E572D551CDEC934A7B4A736B7B86
:103A40004B734B730A6BEA6AC96AC96AC96AE96A45
:103A5000E962E962095BC95AA862A862A962E962DF
:103A60000A632A6B4B6B4B6B2B730B73CA6AEA525C
:103A7000C8320C4CD01DF12DD2359135101DCE140D
:103A80008E1C2C140F251336122EF12DF13DB13D55
:103A9000D13DF135B13DD135F135F23DF23DD23D6B
:103AA000F33D3336333654463456725D6F64CD631E
:103AB000CD6B0E6CEF7B0F842F944F9C919C13A5C4
:103AC000B6AD37B678B679B658AEF6A5539DAE9C6E
:103AD0008BACEAC46C246D24AD24CE240F1D0F1DC5
:103AE0002F1D2F1D7025B12DF23D123E123EF23DCD
:103AF000D235B12DB125B12DB12DD12DD12DD12D55
:103B0000D12DD02D1136F12DD02D902D7025501D99
:103B1000701D701D4F1D8F1DAF1D1236333E912538
:103B20007015F22D323ED135902DEE1C6D34452AA4
:103B30002CA42FDD92D5AFB46A834A7B4B734B73B1
:103B40002B732B6BE96AE96AE96AE96AE96AE96A4F
:103B5000096BE962E962E95AC95AA962A862C962B5
:103B600009632A632A6B4B7B0B732B730A630A5B13
:103B7000A94AC9524F1DD12D1236F22D501DCF1416
:103B8000AE1C0C14CE1C32363236D135D13D913DAF
:103B9000D23DF135F135D135D13DF23D12361236F7
:103BA000F33D133E334634569365706CCE630E6C12
:103BB0004F7C4F844F8C6F9C90A4B0ACF1B474B523
:103BC000F6B558BE99BE99BE59B6F7AD73A50FADFF
:103BD000ECBC2AD56C248D24AE24AE1CCE1C0F1D4B
:103BE0002F1D2F1D0F1D2F259035D23D1346334617
:103BF0001346D23DB125D125F22DF22DF12DD12D37
:103C0000D02DB02DB02DB02D902D902D902590253C
:103C1000901D911D4E1D8F1D8F1DD12D333EB22D38
:103C20007015F22D323EB02D9025EE244C3C2432FE
:103C30006DAC50E593CDEC934A7B4A7B6B7B0A6B72
:103C40000A6BC9620A6BE96AE96AE96AE96AE96AC0
:103C5000E962C962C962E95AE962E962A962C962B4
:103C6000E9622A632A6B0B7B0B7B2B736B630A5312
:103C7000EA62075A8D244F2D122E32269015EF142A
:103C8000CF1C4D14AE1412363236F23DD145913D63
:103C9000D23DF1351136F135D13D123E3336333652
:103CA000133EF345F55D1265506C3074907CB18421
:103CB000D18CD19CB09CD0ACD0B4F1BC32C594C5F1
:103CC00016C678C699C69ABE79BEF7AD94AD50B502
:103CD0004DCD6BDD6C248D24AD24CE1CCE14EE1C9A
:103CE0000F1D2F1D0F1DEE1CEE240F2D713DD24513
:103CF000134E134E3336B125D125F22DB025D02DDC
:103D0000F135B02D902DB02DB02D7025701D901D6A
:103D1000901D901DB0256E15AF1D6F1DF235343608
:103D20007015B1251236F1356F25EE24EB33C74AF5
:103D3000EEBC4FE5F0B46A7B4A7B2A73E96A2A6BD2
:103D4000EA6A2B6BEA6A0A6B0A6BE96AC962E96282
:103D5000E962C962C962C962C962C962C962C962EB
:103D6000E962095B0A6B2B732B7B4B736B632A63D2
:103D7000CA62486A091B0F3DB0251116F1150F15CF
:103D8000CF244D144C0C333E323EB1359035503576
:103D9000D135F135F13DF135112E1236333613366A
:103DA000133EB3551375B284B284F28C1395339DD0
:103DB00033A553A552B552BD51C552CD73CDD5CD06
:103DC00037CE98CEB9CE9AC67ABE39BEF6B5B2C550
:103DD000AFD5CDE54C246D24AD24AE1CCE1CEE1425
:103DE0000F1D0F1DEE1CCE24AD248D248D24EF3429
:103DF0005145B24D122E743E12369025D12DD12D43
:103E0000B02DF12DB02D902D702D502D4F256F1D03
:103E10009015B0158F1D8F15AF1D4E1D9025132EBB
:103E2000B11DB1251236F12D6F1DEE24EB33085371
:103E30002FC54FDD2D9429734A7B4A730A6B2B7370
:103E4000EA6A0A6B0A6B0A6B096BE962C862C862AC
:103E5000A85A67526752885AA962C962E96AE96238
:103E6000096309630A632A6B4B734B734B6B2B6BB0
:103E7000CA6A69624732EC33B12D321E321E501DC0
:103E8000CF246D146D0C1236F135702D902D702DE0
:103E9000D135D12DD2451236322E122ED23DB34518
:103EA0009355546D1485F4943495749D95A574AD13
:103EB00095B5F5ADD3B5B3BDB2CDB3D5D4D516D682
:103EC00058D699D6BAD6BBCE9BC67AC638C635CE9A
:103ED00012DE30EE4C1C6C248D1CAD1CCE1CEE1C76
:103EE000EE1CEE1CCE1CAD246D242C1CEB1B0B24F5
:103EF0008E34304DF12D123E123EF245F245B13571
:103F0000B025F125F12DB12D702D5035502D4F1DBF
:103F10006F0DAF058F1DB01DAF1D2E150F1591250F
:103F2000D125D1253236F12D8F25EE24EB336A636E
:103F300051CDEDC44A7B09732A732A730A6B0A6B4D
:103F4000EA6A0A6BE962E962C862A85AA85A875A03
:103F50006652264A064A2652675AA862A862C96271
:103F6000E9620963095B2A634A6B2B732B7B2B7B0A
:103F70000A6BEA5AE751A82A5035111E111E501D2E
:103F8000AE1C6D148D0CD12D902D4F257025B02DAC
:103F90001236F235B23DD23DF33DF33DB345535DAC
:103FA00034753585358D559596A596B5B6B5D6B586
:103FB00016B657B635BE34C614D614DE35DE57DE17
:103FC00098D6B9D6DAD6DBD6DCCEBBCE9ACE77D6AB
:103FD00074E672EE2B1C4C1C8D24AE1CCE1CCE1C29
:103FE000CE1CCE1CAD1C6D242C240B24AA23AA238A
:103FF000EC2B6E3C503D503D9145F2451346133E2F
:104000001236D22DD235B12D912D702D70256F1D08
:104010006F156F0D9015D01DB01D6F1DEE142F156F
:10402000911DD1253236312ED025EE24CB3BAB6B02
:1040300030BD0AA4096B2A732A732A730A6BCA6AF1
:10404000E96AEA6AC962C862A85A87526652675228
:104050004652254A2642264A275247526752A85AB4
:10406000C962096309634A5B4A630A6BEB7A0B8393
:104070002B6B2A5B096AE6292C2CB025D12550250B
:10408000CE1CAE146C0C912D902D7025B12DB12D40
:10409000F23DD23DB335B345B455B45D945D34754E
:1040A000358D55957595B69DB6ADB7BDD6BD16B6D1
:1040B00037B657BE76BE56C656D656D657D678D6DB
:1040C000B9D6DAD6FBDEFCD6FCD6DCCEDCD6B9D649
:1040D00096DE94E60B1C2C1C8D24AE24CE1CCE1C2C
:1040E000AE1CAE1C8D1C4C240B24EB238A236A23AC
:1040F000AB330C3C6E5C105D50454F2DB12D333E03
:10410000134EF34DB245B235D125B015B0158F150C
:104110004F1D0E256F0D8F15B01DD12D4F25CE0CC7
:104120004F15B0251136312EF125EE24CB3BAB6B6C
:10413000AEAC277B096B4A732A730A6BEA6AC962C1
:10414000C96AC962C862A85AA75A8752665266529B
:104150004652264A664A475246524652464A875275
:10416000A85AE96229632A5B2A63EA6ACB7AEB7A66
:104170002B6B4A5B4A7AA631E81A2F35F22DD12DE6
:104180002F25EF1C6C0C912DF235F235F23DB23D2E
:10419000B2459245D44DB45D746D557D147D148542
:1041A0003585758D969DB7A5D7ADF7B517B637B6DA
:1041B00057BE58BE97BE77C677CE77D678D6B9D6D3
:1041C000FAD61BD73CDF3CDF1DD71DD71DD7DBD66A
:1041D000B8DE76E6EB1B2C1C6D24AE24CE1CAE1C88
:1041E000AE1C8D1C6D1C2C24EB2BAA2B4923492BB8
:1041F0008A33EC43AD6B8F6C9265D24D702D502D90
:10420000B23DD34DD34DF33D122EF115D00D8F1D80
:104210004F25EE2C2E0D4E0D8F1DF235B1350F159D
:104220002F159025D02D312EF125EE24AC3B2A5BA5
:10423000CB8BC66A0A6B4A732A730A6BEA6AC96A2D
:10424000A9628862875A875A865266524652464AFF
:10425000254A054A465246524652464A464A664A08
:104260008752A85AE9620A630A63EA6AEA6A0B7328
:104270002B6B2B638A72C64105128D34F23D122ED0
:10428000701DEE1CAE1C9135F23DD23DD23DB24DBB
:10429000B35DB35D956D756D3575D48CB494D48C68
:1042A0005585968D96A5B7AD17AE58AE58AE38BEAB
:1042B00038BE58BE78BE78C678CE78CE99CEDACEE3
:1042C0001BCF3CD75CD75CDF3DD73ED73ED7FCDE6B
:1042D000B9DE77DEEA1B0B1C6D24AE24AE1C8D14F8
:1042E0008D1C8D1C4C1C2C24EB2B8A2B492B493309
:1042F0008B3BEC4BAD6B2E6CB48DB7961466513D79
:10430000712D922D1336343633361236D22D902D30
:104310006F254E252F0D0E0D2E15902DF23D912D52
:104320004F1D9025D02D312EF1250F2DAC3B884A05
:10433000E86AA6622A6B0A6B0A6BEA6AC96AA96212
:104340008862675A675A4652454A254A254A054AAD
:104350000542E441E549054A254246424642464A6D
:10436000464A4752A862A96AC96AEA620A632B638D
:104370002B6B0B73CA6A274AA4116A239135122E3C
:104380004F15EE140F2D913DB23DB23DB245B35DD8
:10439000B46D9475F57CF57CD484B48C9494D494E9
:1043A0003595769D96A5D7A537A658A658AE38B6AA
:1043B00018BE17BE58B658BE58C679C6BAC6FBC690
:1043C0003CCF5CCF7CD75CD75DD75ED75EDF1DDF8F
:1043D000BADE78DECA1B0B1C6D24AE24AE1C8D1415
:1043E0006D148D1C2C1C0B24CB2B8A2B8A338A3BFF
:1043F000AB43AB43CC5B6F7C339578BE5BBFB7768A
:10440000B12D9005F10DF21DF33DF355D355B13D9E
:10441000D025F0156F152E0DED0C0E1DD235F23591
:1044200070259025D02D5236F125302DAC33E6394C
:10443000465AC6622A6BE96A0A6BC96A896288624F
:10444000675A675A675A4652054A04420442044270
:10445000E441E4418441C441053A45424642464A6A
:10446000464A464A6762886AA972EA622A5B4B5BDF
:104470002B6BEB7A0A63684A6419870A2F2D322660
:104480006F0D0F1D0F2D913DD245F345F355B465CA
:10449000536D126D958C958CB58CD484D484B49462
:1044A000D5A436ADD79D3796579E37A617A617AE1B
:1044B00017B6F8BD38B659BE79C69AC6DBC61CC752
:1044C0005DC77CCFBDD79DDF7DDF7FDF5FDF3DDF59
:1044D000DBDE98DEAB23EB234C24AD1CAD148C1437
:1044E0006C1C6D242C240C240B1C0B1C0B240B2C7F
:1044F000EB2B0C340C44AF64949D37C6DAE6BEF760
:10450000FAC612651045702D9125B125F22D533E46
:10451000333EF235B02D4F25CE1CAD0C0E05111ECD
:10452000332E7025B12DF12DF1256F254B2CA309CC
:10453000A541897A0A6B0A6BE962C85AA852874A70
:10454000464A67524752E549C549C549A439C43965
:10455000C431A331A329A429E531254225420542CE
:10456000264A464A4752885AA962C962E9622A6BBA
:104570002A6B2A6B2A634852E318060A2C0C322E47
:10458000B12DAF34B04C33655575167DF68CB694AD
:10459000958CD58C968C968C958474849484D48CCC
:1045A0001595569DB7A5D7A5F7ADF7A5F7A5F7A51E
:1045B000F7AD17AE58B679BE99BEBAC6DAC61BCFEC
:1045C0003CD75DD77EDF9EDF7EDF7EDF5DDF3CDFB9
:1045D000FBD6BACEAB23EB234C248D1C8D1C8C1444
:1045E0006C1C6D244D244C244C244C244C2C2C2C21
:1045F0000C34EC330D548F6C949D37BE99CE7DE70F
:10460000FFEFFFD79CB7D88E156EB355513D3035AF
:10461000B2355446522EB02D502D0F1DCD0C4F15D6
:10462000B12570259125F12D112E8F2D6C34C311DC
:104630008431A972E972E96AA862885A8752674A86
:10464000464A464AE541C441E549054A05422542F4
:104650002542043AE53905420542E4390542464A15
:10466000464A264A47526852885AA95AC9620A6B72
:104670002A6B2A6B2B6B6852C218E611AB0BD12543
:10468000D12DCF34D1545475557D167DF78CB69409
:10469000958CD58C958C958C95845484737C94845E
:1046A000F58C569DB7A5F7A5F7ADD7A5F6A5F6A548
:1046B000F7AD17AE38B679B6B9BEDAC6FBCE1CCFA9
:1046C0005CD75DD79EDF9EDF7EDF7EDF5DDF1CDF98
:1046D000DBD699C6CB230C244C1C8D1CAD1C8D1C29
:1046E0006D1C4C244D244D246D248D2C6D2C2C34AC
:1046F0000C34EB33AC532F6C739557B6D9C65BD7DC
:10470000FEE7FFEFFFEFFFF7FFEFBEDF1AAF367EEA
:10471000724D0F35D12D323EF2356F25EE14CD0C92
:10472000EE1470257025D12D12369035AD3404125B
:104730004329AA72C97AA9728862675A6652464AA0
:10474000254A254A4652054AE4490552054A254A62
:10475000454A454A2652465246524652665A4652A3
:10476000255246526752674A6752A852C962E962A7
:104770000A6B0A6B2A6B4852A1108511090B2F1D79
:10478000F12D0F2D1265348535851585F68CD6945F
:10479000958CB58C958C758C7584537C337C737C2F
:1047A000F58C5695B7A5F7ADF7ADF7A5D6A5D6A567
:1047B000F6A517AE38B679B6BAC6DAC6FBCE3CD780
:1047C0005DD77DDF9FDF9FDF9EDF5EDF3DDF1CD794
:1047D000BACE79C6EB230C1C4C1C8D1CAD1C8D1C59
:1047E0006D1C4C1C4C246D248D2C8D2C6D2C4D344B
:1047F0002C3C0C44CC534F64128516A6DAC67CDFE1
:10480000BEEFBFF7DFFFDFFFBFFF9FFFFFFFFFEF41
:10481000FDC7F99E936D30459135533E122E701DA4
:104820002F1D0F255025912DF235902DCE2C450AA8
:104830002221CA7AEA72C972886247524652464AAF
:10484000254A254A4552055266622A838A8B097B8E
:104850006662055A676AE97A298329834983E8727F
:104860008662875A6752674A674A6752A85AC9627E
:10487000EA6A0A732A73274A6108041189126D14BF
:10488000F1252F2D526DF394F494F584F584D58C95
:10489000958C948475845484547C337C1274537C3A
:1048A000D48C3595B7A5F7AD17AEF7ADF6A5D6A55F
:1048B000D6A517AE38B679BEBAC6FBCE1BCF3CD74D
:1048C0007DDF7EDFBFDFBFE79FDF7EDF3DD71CD709
:1048D0009ACE59C62C1C4C1C6C1C8D1C8D1C8D1C1E
:1048E0006D1C6D1C6D24AD24AE2C8D2C6D346D3C77
:1048F0006E4C4E546E4CAF5C127DB59D99C63CE734
:104900009EF7DFFF9FFFDFFFDFFFDFFFBFFFFFFF40
:10491000FFF7FFF73DEFB9B6B25D4F25D12DD23588
:104920009135B23D502D912DF235B02D0E2D850AC9
:104930000219CB7A0A6BE962875A664A664A454A87
:104940006552A65AA76A0983ECA3AFC4F0CC2DB474
:1049500009932672E88A0DAC8EBC2DB44DB42DACF3
:104960008A8BE86AA75A8752664A464A6852A96201
:10497000EA6AEA724B7BE6416108E4108922EC1393
:10498000D125502D527DD39CB39CD48CF584B58C0D
:10499000758C74845484347C137CF2731274537C4D
:1049A000B4843595969DF7AD18AE17AEF6A5D6A58D
:1049B000D6A5F7AD38B679BEBAC6FBCE1BCF3CD76D
:1049C0007DDF9EDFBFE7BFE79FDF7EDF3DD7FBD602
:1049D0009AC638BE4C1C6C1C8D1C8D248D248D1CDD
:1049E0006D1C6D1CAD24CE24AD248D2C8D34AE4CAD
:1049F000AF5CAF64CF44EF543175B59D79CEDBE643
:104A00003DEF9EFFFFFFDFFFBFF7DFFFDFFFBFFFD1
:104A1000BFFF9EFF1EFF9EF7BCCFF88E925510453C
:104A200051455135912DB12DF235D2350F35860ACC
:104A30000211EA6A0A6BC95A8752664A454A454AD0
:104A4000865A0873EC9BAFBC10D5F0D4F0DCD0D400
:104A50002EC4ABB32DBCF0D431DD10DD30DD30D54C
:104A60006DACAA8B286BE85A874A4642474A885A57
:104A7000C96ACA724B7BC5394000E4188A2A8B0B7D
:104A8000501D70355385B3ACB3A4D48CD484B58C8D
:104A9000958C55845484137CF373F27312743274BE
:104AA000B384158D769DF7AD18AE17AED6A5B6A515
:104AB000D6A5F6AD38B679BEBAC6FBCE1CCF3CD76C
:104AC0007DDF9EDFBFE7BFDF9FDF5EDF3DD7DBCE51
:104AD00079C618BE8D1C8D1C8D1C8D248D248D24B3
:104AE0008D1C8D1CAE1CCE24AD248D2CAE44105DCF
:104AF000116D11755155F05CF16C949558C6FBDE43
:104B00005DEFDFF7DFEFFFF7FFF7FFF7FFFFDFFFF7
:104B1000BFFF9FFF7EFF1CEF1BD77CDF3BD737AE6D
:104B20005375514D9135D125F22DF23D0F3D450A7A
:104B300022092A630A6BA85A675266528652865A1D
:104B40000873CB938EB451D572E531DD51E592ED0A
:104B500072E551E571E571E571ED71ED92ED71E58B
:104B6000EFCC8DACEB8B4973C75A874A67524752DB
:104B70008862CA6A6B7BA531200025196A2A4B0B13
:104B8000AE14714D538DB2ACB3ACD494D484B58C07
:104B9000758C55843484137C1274F273F2733274FE
:104BA0009384158D769DD7A518AEF7ADD6A5B59D86
:104BB000B5A5F6AD38B67ABEDBC6FBCE1CD75DD741
:104BC0007EDF9EDFBFDFBFDF9EDF5DD71CCFBBCEAA
:104BD00039BED7B5AD1C8D1CAD1CAE248D248D24E3
:104BE0008D24AE1CCE24CE24AD24AE34F04C526DB8
:104BF000737D52855275116D127D749537B6FBD653
:104C00007DE7BEEFFFF7FFF7FFF7FFF7FFFFDFFFDF
:104C1000DFFFDFFFBEF77DEF5DEF1BEF7AE67AE6A1
:104C200099CE579E5145B12DF125F23DEF3C050A35
:104C300022092B63E96A675A46526762C76A087B92
:104C4000CB9BCEBC0FCD91E5B2EDD2EDF3F5F3EDFC
:104C5000F3ED13EEF3EDF3F5B2F571ED71ED92F5C1
:104C600071E5EFCC8DACAA830863C85A87522752EE
:104C7000685AEA6A8C7BA531400086118A1A2B0B90
:104C80002D1C72653395B2ACB3A4D494D484958CA6
:104C9000758C3584337C137C13741274F273127424
:104CA0009384F48C569DD7A518AEF7ADB6A5959D07
:104CB000B5A5F6AD18B679BEDBCE1CD73CD75DD70F
:104CC0007EDF9EDFBFDFBFDF9EDF3DD7FCCE9AC613
:104CD00018BEB6ADCE1CCE1CCE24AE24AE24AE245F
:104CE000AE24CE24AD1CEE248D248D34315DB37DF5
:104CF0009385738D538D3385F27C338D57AE1BCFE7
:104D00007DDFBEEFFFF7FFFFFFFFDFFFDFFFDFFF0E
:104D1000DFFFDFFFDFF79EEF5CEFFBE679E619E6EA
:104D200039DE79C6736D5135D1253336AE34050A77
:104D30002219EA6AE962675A876209734983CB9B41
:104D40008EBCEFD450DD91EDD2F5F3F513F613EEF2
:104D500034EE95F634F6F3EDF3F5F2FD91F591F5B9
:104D600071ED10D58EBC8EAC8A83096BA85A885A17
:104D7000885AA9626C73A529A2000712CA126B1B7C
:104D8000EC2B5275339DD3A4D39CD494B58C958CC5
:104D9000558C35843484137C12741274F273F1735D
:104DA000527CD48C5695B7A5F7ADF7ADB6A5959DB9
:104DB00095A5D6A518B679BEBBC6FCCE1CD75DD7C7
:104DC0007EDF7EDF9FDF9EDF5ED7FCCEBBC659BE97
:104DD000D7AD55A5CE1CCE1CCE24AE24AE24AE2419
:104DE000CE24CE24CE1CEE2CAE2CAE3C5265D48507
:104DF000B48D94955395538D1285538D37AE1BCF3B
:104E00007DE7BEF7DFFFDFFFDFFFDFFFDFFFFFFF35
:104E1000FFFFFFFF9FFF5DF71CEFFADE99DE58D61C
:104E200018D638C6B58D51459125133E8E340512DE
:104E30002219EA6AC85AC85A096B6A83CB934CACE8
:104E4000CFCCEFD470EDB2F5D2FDD2F513F654FE0F
:104E500054F634EE13E6D2E5D2EDB1ED71ED71F515
:104E600071ED30E58EC46DACEC936A7B096BC96261
:104E7000A85AA85A6C7385290301E6010A136B230B
:104E8000CD43749D33A5139DF49CD494B58C958C1F
:104E9000558C55843484137C12741274F273D16B64
:104EA0003274B484359597A5F8ADD7ADB6A595A560
:104EB00095A5D6A518AE59BEBBC6FBCE1CCF3CD718
:104EC0005DD77ED77EDF7ED71DCFBBC67ABEF8B555
:104ED00076A5F39CCE1CCE24CE24CE24AE24AE24C4
:104EE000CE1CCE1CCE1CCE2CAE34AF4C5275D48D05
:104EF000B4959495948D938D3285538D16AEFACEDC
:104F00005DE7BEFFDFFFDFFFFFFFFFFFFFFFFFFFEC
:104F1000FFFFFFFF7EFF1DF7DBEE99DE78CE37C681
:104F200017CEF7BDF6957255502DD2454D34251A42
:104F30004319E952E85A496BAA7BCB8B2CA4AEBC2F
:104F4000EED4CED42FE530E530ED51EDB2F5D3ED12
:104F5000D3EDD3E5D3DDD2E591DD50DDEFDCEFDC41
:104F60000FE50FE58DC40CB42DAC8B8B4A7B096B20
:104F7000C85AA85A4B6BE6314301670A2A134B33D0
:104F8000B07C74AD33A5139D1495D58CB58C968CDF
:104F9000758455845484337C137C1374F273D16B01
:104FA000327493841595979DD7ADD7A5B6A596A5D0
:104FB00095A5B6A5F8AD59B69AC6DBCEFCCE1CCFEA
:104FC0003DD73DCF5DD71DCFBBC65ABE18B6B6ADD7
:104FD000149D928CEE1CCE24CE24CE24CE24CE243E
:104FE000CE1CEE1CCE1CCE2CAE3CD0545275B495CB
:104FF000B4957495B48593853275327D16A6FACE34
:105000007DEFBFFFDFFFDFFFDFFFDFFFFFF7FFF712
:10501000FFF7DEF73DF7DCEE7AE638CEF6C5F6C5EB
:10502000D6C5B6BDD6A5946D9245B2450C2C651279
:10503000E421084B6973CB83EB8BEB9B4CACADC489
:10504000AECCCED42FE550ED0FDD6DCC8ECCCFCCD9
:105050006EBCCBA3CBA30CAC6DBC8EC4AED4ADD414
:10506000AED4EEDC6DCC0CB4ECAB6B8B297BE96A77
:10507000E962E85AEB6A273A8401C81A0923ED5B12
:1050800073A554B533AD349D1495D58CB68C958CE1
:10509000758C55845484547C337C337CF273F16B6F
:1050A0003274737CF58C769DB7A5B7A5B6A596A589
:1050B00096A5D6ADF8AD59B69AC6DBC6FBCEFBCEEB
:1050C000FBCEFCC6FCC6BBBE7AB6F8AD96A5349D39
:1050D000B28C3084CE24CE24CE24CE24AE24CE1C5A
:1050E000CE1CCE1CCE24CF34AF44D05C327D949500
:1050F000B49D949DB385737D116D327516961AC754
:105100009DE7DFFFDFFFDFFFDFFFDFFFFFFFFFF7D1
:10511000DEEF9DE7DCE67ADE18CEB5BD74B575C569
:1051200075CD76CD75ADB58DF4657145CA13A612F2
:10513000C73A4A63AB93EC9BEB9BEBA34CBC6DC4AF
:105140006CCCCDD4ADD4CED4EED4CFD48EC4ABA35E
:10515000A782257205728782299BEBB36DC48DCC23
:105160006CCC4CC46DCC2DBCABA36B9BE97AE86ACC
:10517000096BE862EB6A073A0512A7226A43329D7F
:1051800053B553B533AD349D1595D58CB68C968CEF
:10519000958C74847484547C547C337C1374F273C3
:1051A0003374737CF58C569D979D969D76A596A538
:1051B00096A5D7AD18AE59B69ABEDAC6DBC6DAC622
:1051C000BABE9ABE9AB659B618AE96A51495928CE8
:1051D000107CCE73CE24CE24CE24CE24AE1CCE1C86
:1051E000CE14EE1CCE24CF34D04CF16C3385949584
:1051F000B59D949D738D327DD06C116D1596FABE60
:105200009CDFDFF7DFFFDFFFDFFFDFFFFFFFFFFFD9
:105210009DEF1BE77BDE39CEB6B533A5F2AC34C5C6
:1052200055D535CD35B5D6A5367E714DCA1BC722AD
:105230004A638C8BAB9BCBA3AAA3CBAB2CBC4CC43B
:105240004CC4CDD4EDD4EED40FD5AEC48AA3257A08
:105250008361C569C571A571E579C78AAAAB6CC4BC
:10526000ADCCCECC6DCC4DC48BA36B9BE982C87208
:10527000E86AC862AA72A84A8622E8328F8C93C56F
:1052800072BD32B533AD14A5F59CF68CD68CB694B0
:10529000B58CB484758454845484547C547C337C9D
:1052A000537C737CF58C3695769D769D769D769DA8
:1052B00096A5D7AD18AE59B69ABEBAC6BAC699BEAB
:1052C00059B659AE38AEF8A5969D14959284107CC7
:1052D0008E734D6B0F2D0F2DEF2CCF24CE24CE1CB3
:1052E000EE14CE1CCE24CF3C115D3275538D959DAE
:1052F000B59D949D5395F17C8F6CF174F59DB9BE6D
:105300003BD7BEF7DFFFFFFFFFFFFFFFDFF79EF793
:10531000FCEE5ADED8CD76BDF3A4919CB1A434C581
:10532000B5CD96C596B5F7AD179E7375AB3B093BEA
:105330008B7B8DA3CBA3CBA3AAA3CAA32BB44BBCBB
:105340006CC4CDCCACCCEED46CC4089B4682A89285
:105350002BAB6CB36DBBEBA2A992C8922893CAABDE
:105360006CC4ADCC8ECC6DC4CBB36A9B0983E872A0
:10537000C86AE8628A722A5B28336E7493C552CD7C
:1053800092CD51AD53B514ADF59CF694F794D694E7
:10539000D594D484958C7584758474847484748451
:1053A000747C9484D58C3695569D569D559D759DDF
:1053B00096A5D7AD18AE59B69ABEBABE99BE58B624
:1053C00018AED7A5B69D7595F48C927C1074AE6B13
:1053D0004D6B2C63503550353035EF2CEE24CE1C00
:1053E000CE14CE1C0F2D1045526594859495B59D15
:1053F000B59D74953295B17C4F6CB074B59D58BE17
:10540000FAD67DEFBEF7FFFFFFF7DEF79DEF1CEF4B
:105410005AE6B8D535B5D3A451940F9491AC95C53F
:1054200057CE57BE37B638BEF7B5B6A5CD632A5BA3
:105430008C8BADAB0CA40BA4EAA3EAA32BB46CBC7D
:10544000ACC4EDCC2EDD8DCCCBB38BB30DC470DCF6
:10545000B2ECD3ECD3EC91DC70D44EC40CB42CB4CD
:10546000ADC4EED4EFD46EC42DBC6A9B4A93097BC5
:10547000E86A096B8A7A09530C5434B6B4DD32DD1C
:1054800072C592B553B514B5F5A416951795F79452
:10549000D594F48CB68C958C9584958CB58C95842C
:1054A00094849484D58C1695569D369D559D759DF6
:1054B00096A5D7AD18AE59B699BE9ABE79B638AE94
:1054C000D7A5969D348DD3845174F06BAE6B6D630C
:1054D0002C63EB62305D305550452F35EE24ED1CCA
:1054E000CD1C8D24CF44326D948D959DB5ADD6AD38
:1054F00095AD549D528DD07C6F7CB084539D16BE6B
:10550000D9D61BDF7DEF9EEF9FEF7EEF1DEF9ADE7A
:10551000D7C555BD91A4CE8B6D830F9455BD18D6BC
:1055200059CE9ACE79C698BE36AEF5B56E8CAB7BA9
:105530000C94EB9B0CA4EBA3EBAB0BAC0BB44CBCF3
:105540008DCCEFDCAED4AFDC2DCCB0DCD1DCF3E421
:10555000F3DC75ED56ED55F5F3EC70DC6FDC6FD4D4
:105560006FD4D0D4CFD4AED46CC42BBC27932883B3
:105570008A832973C962E96A4A7B93C5F3D592CDC0
:1055800072C593C554BD55AD36A5169D169D169D85
:10559000F694F694F694D694D694D68CD68CD68C73
:1055A000D68CB68CD68CF694169D159D159D35A57A
:1055B00075AD96B516BE58BE9ABE7AB65AAE18A646
:1055C00096A513A5909CEE8B8D836D7B8D7B4C6B8C
:1055D0000C630B635165305D30452F3D2E2DEE1C65
:1055E000CD24AE34515D947DF59DF6ADF6B517B67C
:1055F000D6B594A55295F18C9084B08C329DD5B5DA
:1056000077CEB9D61CE73CE71CE7FCDE9ADE18CE65
:1056100055BDD3AC0F946C838D8B91A496C579DE68
:10562000BADEFBD6BACEB9C637B6D4AD4E8CCB8374
:10563000EB93EB9B4CAC6DB42CB44CB42BB4EBB3F0
:105640008DCCEFD430E5AFD4B0D411E512E595F5AB
:1056500013E5B2D492D4B2DC91DC70DC8FDC4FD491
:105660006FCC11DDF0D4CFD46DC44BBC0BB4AA9B6E
:105670008B8B4A7B096BC86AE872F0B4F3D5B3D55B
:10568000B3CD73C574BD55B536A5369D379D379DD1
:10569000179D169D179DF794F794F794F794179517
:1056A0001795F79417951795169D159DF49C14A5BD
:1056B00055AD95B5F6BD58BE99BE7AB659AEF8A5AA
:1056C00075A5F3A45094EE8B8D838D838D7B6D73C4
:1056D0004C734C73516D305D305550452F35EE2471
:1056E000EE2C3045D475159637AE57BE58BE58C609
:1056F00017BEB5AD73A5329DF094F09C11A573B59E
:10570000F5C557CE99D6BADE9AD639D6F7CD75C536
:10571000D2B450A46C830B73EE9334BD17D6BAE6A3
:105720001CE73CDF1BD7D9C657BE93AD0D84EC9365
:10573000CB9BEBA30CAC4CB4EBAB4CB40CB4AAA31A
:105740004CBC6DC4CBB3099B2AA32AA30AA32BABE1
:10575000E6810361E358657106824792268AC47127
:10576000E571A8820DB4AFCCCECC4CBC2CB48A9BD6
:105770008B93AC8B2A7BC86AC86A2C9CF3D5D3D593
:10578000B3CD93C594BD76B556AD57A558A5589DD4
:10579000589D389D379D389D389D389D389D389D42
:1057A000389D389D379D369D169DF49CD39CF39C67
:1057B00034AD95B5F6BD57BE99BE7AB659AEF8ADC3
:1057C00075A513A5709C0E94CD8BAD83AD838D7B99
:1057D0008D7B8D833175316D516570550F3DCE34A4
:1057E000504DD36D368E57A678BE78C679CE79CE19
:1057F00057C6F6B5B4B593B551AD11AD31AD52B58F
:1058000093BDD4C516CE17CE17CEB6C554BDF2B4CF
:1058100050ACCD9B2A7B4B7B70A4B6CD79DEFBE6EA
:105820003CE75CE71BD7D9CE57C652A5CC830D9C6D
:10583000AB9B0CAC8DBC8DBC6DBCAEBC2CB4E78AF4
:10584000046A6259C048C048E150E1504361426176
:10585000A058E26043614361226101590159C1507E
:10586000E1482249C561C882CBAB4DBC8EC4CBA3F5
:105870008B93EC9B6B83E872C7728A8BD2D5D2D59F
:10588000B2CD93C594BD75B576AD57A578A579A56C
:10589000799D599D589D589D589D599D599D589D3C
:1058A000589D389D379D37A5159DF49CD39CF3A436
:1058B00033AD74BDF5BD37C679C69ABE7AB618B693
:1058C00095AD33ADB1A44FA40E94CD8BCD8BAD8BE4
:1058D000AD8BCD8B317D5175516D505D0F4D305578
:1058E000D36D558697A698B6B9C6B9D6BAD6B9D6E5
:1058F00078C616BED4C5B3C572BD51BD31BD51BD4C
:1059000072BD72BD73BD94BD74BD12B5B1B44FAC60
:10591000EDA36B932A7BCD93F2B4F6D5B9E63BEFBA
:105920003CE77CE73BDFD9CE77C6F1A4AB830DA47F
:10593000ABA32DB44CBC0BB46DBCAEBC6DBCAB9B6F
:105940006672C359A77A098B0993A88A878A678ADE
:10595000C99A8CB30DB46BA38782267A87820A8B8F
:10596000EA82A972C5594251E469ECABAECC2DB4C0
:105970008A9BCC9BCC93297BC772288391CDB2CDD7
:1059800092CDB3C574BD75B576AD77AD78A579A563
:1059900079A579A579A579A579A579A579A558A538
:1059A000589D379D37A536A515A5F3A4D2A4D2A43A
:1059B00013B573BDD5BD37C679C69ABE7ABE38BE9B
:1059C000D6B574B512B5B0AC2F9CEE93CD93ED93D4
:1059D000ED93ED93528D5185517D516D716DF37540
:1059E000568E979ED9B6D9C6DAD6DADEFADED9DE79
:1059F00078CE37C6D4D5B3CD72CD71C571C571C55A
:105A000051BD31BD11B511B5F1B4B0AC4FACEDAB7A
:105A1000ACA34B9B8B8B4EA453C516D6FAEE5CEF12
:105A20005CE79DEF3BDFB9CE57C6B09CAB8B0CA4B7
:105A3000ABA30DBC8DC42CB48DC48DBCAEBCCFBC8F
:105A40002DAC2DAC2EACB0BC11CD52D511D532DD64
:105A500053E5F1D4D0C411CD52D532CD11C5F1C426
:105A6000B0B42FA48C936772467AABA30CB40CB479
:105A70008B9B8B9B2EA48B8BE87AC77A30C5D2D5B3
:105A800091CD92C573BD74B576AD77AD78AD79A57E
:105A900079A57AA579A579A599A579A579A558A516
:105AA000389D379D16A5F5A4D3A4D3A4D2A4D1AC18
:105AB00011B552BDD5BD17C679C6BAC69AC679BE4C
:105AC000F7BDB5BD53BDF1B470AC2E9C0E9C0D9CC2
:105AD0000D9C0D9C72957295928DB38D1496969E29
